:1000000012C02CC02BC02AC029C028C027C026C0BF
:1000100025C024C023C0D5C021C020C01FC01EC021
:100020001DC01CC01BC011241FBECFE5D4E0DEBF25
:10003000CDBF10E0A0E6B0E0ECE2FCE002C005902D
:100040000D92A437B107D9F710E0A4E7B0E001C0E2
:100050001D92A637B107E1F709D1E6C5D1CF80914E
:100060006A0090916B008230910501F18330910517
:1000700034F4009759F08130910581F50FC0833039
:100080009105E1F08430910549F522C08BED91E4B2
:10009000AFE081509040A040E1F717C08FE191EAB6
:1000A000A7E081509040A040E1F70FC08FE996E8AB
:1000B000A1E081509040A040E1F707C08FE59AEEA3
:1000C000A0E081509040A040E1F700C000000895FA
:1000D000ABE7B2E91197F1F700C0000008958091F5
:1000E00074008823A1F580917500882381F185B380
:1000F00091E0892785BBA898B2DF8091740088239E
:1001000031F580917500882311F188B390E2892739
:1001100088BBC598A4DF809174008823C1F48091C6
:1001200075008823A1F088B398E0892788BBC3981D
:1001300096DF80917400882351F4809175008823A4
:1001400031F088B392E0892788BBC19888DF089591
:10015000809174008823A1F180917500882381F13A
:1001600088B392E0892788BBC19879DF80917400B9
:10017000882331F180917500882311F188B398E0CC
:10018000892788BBC3986BDF809174008823C1F0F6
:10019000809175008823A1F088B390E2892788BBFD
:1001A000C5985DDF80917400882351F080917500BF
:1001B000882331F085B391E0892785BBA8984FDF6C
:1001C00008951F920F920FB60F9211248F939F9351
:1001D0008CB1823701F1833719F0863671F512C080
:1001E00080917500882349F581E0809375008091A6
:1001F0006A00805D8CB982B390E2892782BB8091CE
:10020000740013C0909175009923B9F01092750095
:100210008CB9959811C080917500882371F08091F8
:10022000740091E0892780937400882329F085B3B6
:1002300094E0892785BB01C0AA989F918F910F9068
:100240000FBE0F901F90189590E002C0959587956E
:100250006A95E2F780FD08C089E698E10197F1F719
:1002600000C0000081E0089580E0089510927400BD
:1002700010927500A398AB9AA498AC9A8D9A959811
:10028000A29AAA98A09AA898BD9AC598BB9AC39812
:10029000B99AC19860E970E981EB91E453D450D0E8
:1002A00069B988E98AB986E880BD86E68CB9789410
:1002B0003FC083B363E0C8DF8823B9F080916A0050
:1002C00090916B008430910514F4019602C084E093
:1002D00090E090936B0080936A00805D8CB987EA10
:1002E00091E60197F1F700C0000083B364E0ACDF52
:1002F0008823B9F080916A0090916B00823091055B
:1003000014F0019702C080E090E090936B0080931E
:100310006A00805D8CB987EA91E60197F1F700C029
:10032000000080917400882311F012DF01C0D7DE35
:1003300080917500882309F0BCCF5D9BFECFF8CF7C
:10034000EF92FF920F931F937B018C0120E030E02E
:1003500040E05FE4B7D187FD0FC0C801B70120E0DE
:1003600030E040E05FE483D1D8D19B01AC01205064
:1003700030404040504805C0C801B701CED19B0174
:10038000AC01B901CA011F910F91FF90EF90089540
:10039000A0E0B0E0EDECF1E0A2C3FC01EA01808155
:1003A000823008F438C1DB019C91923008F430C1EE
:1003B000843059F4943009F02EC1918111968C91BA
:1003C0001197981709F021C126C1943009F420C172
:1003D0009230B1F4823009F01EC1CA01AF0128E0A9
:1003E000DA010D90AD01DC010D92CD012150C1F774
:1003F000DB0111968C9111979181892389830AC120
:10040000823009F405C1C280D380DB0112966D9061
:100410007C90139724813581468157811496ED9005
:10042000FD900D911C911797C601861997095C01E3
:1004300097FF04C0AA24BB24A81AB90AB0E2AB16DD
:10044000B1040CF061C0181619066CF537014801AB
:100450000A2C04C096948794779467940A94D2F7F0
:1004600081E090E0A0E0B0E00A2C04C0880F991F62
:10047000AA1FBB1F0A94D2F70197A109B1098E21C7
:100480009F21A023B123EE24FF248701E39400974A
:10049000A105B10519F4EE24FF248701E628F72809
:1004A000082919293CC00097D1F1CA0CDB1C39017D
:1004B0004A010A2C04C096948794779467940A940E
:1004C000D2F781E090E0A0E0B0E00A2C04C0880FF1
:1004D000991FAA1FBB1F0A94D2F70197A109B1095E
:1004E00082239323A423B52321E030E040E050E0B1
:1004F0000097A105B10519F420E030E0A9012629F3
:100500003729482959290BC06C147D0424F4EE24A2
:10051000FF24870104C0630120E030E0A90181814C
:10052000FB019181891709F445C0882349F0D8015E
:10053000C701821B930BA40BB50B9C01AD0104C03A
:100540002E193F09400B510B57FD04C01982DB8265
:10055000CA820BC081E08983DB82CA8250954095B4
:10056000309521953F4F4F4F5F4F2C833D834E83F6
:100570005F830DC0880F991FAA1FBB1F8C839D83AB
:10058000AE83BF838A819B8101979B838A838C8101
:100590009D81AE81BF819C01AD0121503040404022
:1005A00050402F3FEFEF3E07EFEF4E07EFE35E07C0
:1005B00008F30BC08983DB82CA822E0D3F1D401FCA
:1005C000511F2C833D834E835F8383E088832C817E
:1005D0003D814E815F8157FF1DC0DA01C9018170E5
:1005E0009070A070B0705695479537952795822BDF
:1005F000932BA42BB52B8C839D83AE83BF838A81E1
:100600009B8101969B838A8305C0ECE6F0E003C0E2
:10061000FB0101C0FE01CF01CDB7DEB7EEE07BC22A
:10062000A0E2B0E0E5E1F3E062C269837A838B8304
:100630009C832D833E834F83588789E0E82EF12CDD
:10064000EC0EFD1ECE010196B70183D18E010F5E27
:100650001F4FCE010596B8017CD1C701B801AE018C
:10066000475E5F4F95DEA8D0A096E6E05CC2A0E2B0
:10067000B0E0ECE3F3E03BC269837A838B839C8335
:100680002D833E834F8358878E01075F1F4FCE0116
:100690000196B8015ED191E1E92EF12CEC0EFD1E20
:1006A000CE010596B70155D18A8991E089278A8BB9
:1006B000C801B701AE01475E5F4F6ADE7DD0A096EC
:1006C000E6E031C2A8E1B0E0E7E6F3E010C26983FA
:1006D0007A838B839C832D833E834F8358878E013F
:1006E000075F1F4FCE010196B80133D181E1E82E9B
:1006F000F12CEC0EFD1ECE010596B7012AD189859D
:10070000823038F08989823020F0C801B7018AD15F
:1007100001C08FEF6896E6E006C2ACE0B0E0E2E927
:10072000F3E0E9C169837A838B839C83CE010196D0
:10073000BE016B5F7F4F0DD18D81823081F18230A0
:1007400070F1843021F48E81882369F10AC02F81F1
:10075000388537FD24C06E812F3131053CF066238A
:1007600011F120E030E040E050E821C08EE190E05F
:10077000821B930B29853A854B855C8504C0569571
:100780004795379527958A95D2F7662381F050953E
:100790004095309521953F4F4F4F5F4F08C020E067
:1007A00030E0A90104C02FEF3FEF4FEF5FE7B90141
:1007B000CA012C96E2E0BBC1EF92FF920F931F9308
:1007C000CF93DF93FC01248135814681578161817C
:1007D0008081823020F44061EFEFF0E0A3C08430EC
:1007E00009F49BC0823009F492C0211531054105FE
:1007F000510509F48FC00280F381E02D8FEFE238BC
:10080000F8070CF05AC0C2E8DFEFCE1BDF0BCA318D
:10081000D1056CF579018A010C2E04C01695079557
:10082000F794E7940A94D2F781E090E0A0E0B0E07A
:100830000C2E04C0880F991FAA1FBB1F0A94D2F761
:100840000197A109B10982239323A423B52321E0B1
:1008500030E040E050E00097A105B10519F420E038
:1008600030E0A9012E293F29402B512B03C020E065
:1008700030E0A901DA01C9018F779070A070B070E3
:1008800080349105A105B10539F427FF09C0205C2A
:100890003F4F4F4F5F4F04C0215C3F4F4F4F5F4F63
:1008A000E1E0F0E0203080E0380780E0480780E4B5
:1008B000580728F5E0E0F0E022C0E038F1056CF5DB
:1008C000E158FF4FDA01C9018F779070A070B070C6
:1008D00080349105A105B10539F427FF09C0205CDA
:1008E0003F4F4F4F5F4F04C0215C3F4F4F4F5F4F13
:1008F00057FF05C05695479537952795319687E060
:1009000056954795379527958A95D1F70BC0E0E026
:10091000F0E005C0E0E0F0E005C0EFEFF0E020E03F
:1009200030E0A9018E2F879588278795942F9F7790
:10093000679566276795E695E22EA92FA82BFE2FCF
:10094000F62B622F732F8A2F9F2FCDB7DEB7E6E0ED
:10095000EAC0DC01FB012C9111963C911197129693
:100960008C911297482F4F7750E0982F991F992715
:10097000991F13966C911397862F880F892B90E0FF
:10098000661F6627661F6183009739F521153105BB
:100990004105510511F482E029C082E89FEF93835D
:1009A000828367E0220F331F441F551F6A95D1F7DA
:1009B00083E0808309C0220F331F441F551F8281AB
:1009C0009381019793838283203080E0380780E011
:1009D000480780E4580778F320C08F3F910579F4E9
:1009E000211531054105510519F484E080830895EE
:1009F00044FF03C081E0808310C010820EC08F5777
:100A000090409383828383E0808387E0220F331FAB
:100A1000441F551F8A95D1F750642483358346833C
:100A200057830895FC01DB019081923008F449C09E
:100A30008C91823008F445C0943051F46181843047
:100A4000B1F511962C91119730E0261B310941C068
:100A5000843021F0923041F48230B1F111968C91C2
:100A600011978823A1F12DC06181823001F1119687
:100A70008C9111976817D9F42281338112968D9148
:100A80009C9113978217930794F028173907BCF0AD
:100A9000248135814681578114968D919D910D90C9
:100AA000BC91A02D82179307A407B50718F46623FD
:100AB00041F00DC0281739074A075B0728F4662361
:100AC00031F021E030E005C020E030E002C02FEF3F
:100AD0003FEFC90108952F923F924F925F926F921C
:100AE0007F928F929F92AF92BF92CF92DF92EF92BE
:100AF000FF920F931F93CF93DF93CDB7DEB7CA1B3F
:100B0000DB0B0FB6F894DEBF0FBECDBF09942A8869
:100B1000398848885F846E847D848C849B84AA8411
:100B2000B984C884DF80EE80FD800C811B81AA819E
:100B3000B981CE0FD11D0FB6F894DEBF0FBECDBF69
:100B4000ED01089550D0E0F09E37D8F09639B8F412
:100B50009E3848F4672F782F8827985FF9CF8695BD
:100B60007795679593959539D0F3B62FB1706B0F44
:100B7000711D811D20F4879577956795939502C027
:100B80001CC04CC0882371F4772321F09850872B28
:100B9000762F07C0662311F499270DC09051862B3C
:100BA00070E060E02AF09A95660F771F881FDAF7E9
:100BB000880F9695879597F908959F3F31F091504A
:100BC00020F4879577956795B795880F911D969531
:100BD000879597F9089557FD9058440F551F59F080
:100BE0005F3F71F04795880F97FB991F61F09F3F1A
:100BF00079F087950895121613061406551FF2CF43
:100C00004695F1DF08C0161617061806991FF1CF92
:100C100086957105610508940895E894BB276627B9
:0C0C20007727CB0197F90895F894FFCFD7
:100C2C000F278813E80358022C0102000000000073
:040C3C0000000000B4
:00000001FF
