:1000000012C024C023C022C021C020C01FC01EC0F7
:100010001DC01CC01BC0A5C019C018C017C016C089
:1000200015C014C013C011241FBECFE5D4E0DEBF3D
:10003000CDBF10E0A0E6B0E0E0E2FBE002C005903A
:100040000D92A836B107D9F7DAD068C5D9CF88B3F1
:1000500090E2892788BB88B390E1892788BB88B361
:1000600098E0892788BB88B394E0892788BB88B348
:1000700092E0892788BB88B391E0892788BB0895DF
:1000800088B390E1892788BB88B398E0892788BB2B
:10009000089588B390E2892788BB88B390E18927C7
:1000A00088BB88B394E0892788BB88B392E089270E
:1000B00088BB82B3805882BB089588B390E28927B9
:1000C00088BB88B390E1892788BB88B398E08927EB
:1000D00088BB88B394E0892788BB82B3805882BBF1
:1000E000089588B390E1892788BB88B398E0892771
:1000F00088BB88B391E0892788BB82B3805882BBD4
:10010000089588B390E2892788BB88B398E089274F
:1001100088BB88B394E0892788BB88B391E089279E
:1001200088BB82B3805882BB089588B390E2892748
:1001300088BB88B394E0892788BB88B392E089277D
:1001400088BB88B391E0892788BB82B3805882BB83
:100150000895C598C498C398C298C198C0989798B4
:1001600008951F920F920FB60F9211241F932F9391
:100170003F934F935F936F937F938F939F93AF932F
:10018000BF93EF93FF931CB1E4DF812F992787FD85
:1001900090958F9783309105A9F0843091053CF4B8
:1001A0008130910559F08230910591F409C0843075
:1001B000910551F08530910559F408C061DF0DC0FB
:1001C00068DF0BC07ADF09C08CDF07C09ADF05C08B
:1001D000163611F43CDF01C0A8DFFF91EF91BF910B
:1001E000AF919F918F917F916F915F914F913F91CF
:1001F0002F911F910F900FBE0F901F901895BD9AD1
:10020000C598BC9AC498BB9AC398BA9AC298B99A2E
:10021000C198B89AC0988F9A979860E970E981EB75
:1002200091E40AD407D069B980E98AB986E880BD2B
:100230007894FFCFEF92FF920F931F937B018C0175
:1002400020E030E040E05FE4B7D187FD0FC0C80197
:10025000B70120E030E040E05FE483D1D8D19B01DA
:10026000AC01205030404040504805C0C801B701A3
:10027000CED19B01AC01B901CA011F910F91FF9032
:10028000EF900895A0E0B0E0E7E4F1E0A2C3FC0144
:10029000EA018081823008F438C1DB019C91923000
:1002A00008F430C1843059F4943009F02EC19181A2
:1002B00011968C911197981709F021C126C194309D
:1002C00009F420C19230B1F4823009F01EC1CA0194
:1002D000AF0128E0DA010D90AD01DC010D92CD01F6
:1002E0002150C1F7DB0111968C91119791818923DF
:1002F00089830AC1823009F405C1C280D380DB0141
:1003000012966D907C901397248135814681578198
:100310001496ED90FD900D911C911797C6018619CA
:1003200097095C0197FF04C0AA24BB24A81AB90A44
:10033000B0E2AB16B1040CF061C0181619066CF5EA
:10034000370148010A2C04C09694879477946794E7
:100350000A94D2F781E090E0A0E0B0E00A2C04C05B
:10036000880F991FAA1FBB1F0A94D2F70197A109F2
:10037000B1098E219F21A023B123EE24FF24870100
:10038000E3940097A105B10519F4EE24FF24870139
:10039000E628F728082919293CC00097D1F1CA0C92
:1003A000DB1C39014A010A2C04C096948794779487
:1003B00067940A94D2F781E090E0A0E0B0E00A2CC4
:1003C00004C0880F991FAA1FBB1F0A94D2F7019778
:1003D000A109B10982239323A423B52321E030E0AE
:1003E00040E050E00097A105B10519F420E030E0AD
:1003F000A90126293729482959290BC06C147D04E5
:1004000024F4EE24FF24870104C0630120E030E0DF
:10041000A9018181FB019181891709F445C08823D5
:1004200049F0D801C701821B930BA40BB50B9C01AB
:10043000AD0104C02E193F09400B510B57FD04C0FC
:100440001982DB82CA820BC081E08983DB82CA8287
:1004500050954095309521953F4F4F4F5F4F2C83DE
:100460003D834E835F830DC0880F991FAA1FBB1F5A
:100470008C839D83AE83BF838A819B8101979B83FD
:100480008A838C819D81AE81BF819C01AD01215009
:100490003040404050402F3FEFEF3E07EFEF4E0718
:1004A000EFE35E0708F30BC08983DB82CA822E0D5F
:1004B0003F1D401F511F2C833D834E835F8383E08C
:1004C00088832C813D814E815F8157FF1DC0DA01F9
:1004D000C90181709070A070B0705695479537959E
:1004E0002795822B932BA42BB52B8C839D83AE83D6
:1004F000BF838A819B8101969B838A8305C0E0E646
:10050000F0E003C0FB0101C0FE01CF01CDB7DEB7B3
:10051000EEE07BC2A0E2B0E0EFE8F2E062C2698305
:100520007A838B839C832D833E834F83588789E016
:10053000E82EF12CEC0EFD1ECE010196B70183D101
:100540008E010F5E1F4FCE010596B8017CD1C70109
:10055000B801AE01475E5F4F95DEA8D0A096E6E0F9
:100560005CC2A0E2B0E0E6EBF2E03BC269837A83D2
:100570008B839C832D833E834F8358878E01075F37
:100580001F4FCE010196B8015ED191E1E92EF12C09
:10059000EC0EFD1ECE010596B70155D18A8991E07A
:1005A00089278A8BC801B701AE01475E5F4F6ADEBB
:1005B0007DD0A096E6E031C2A8E1B0E0E1EEF2E045
:1005C00010C269837A838B839C832D833E834F8300
:1005D00058878E01075F1F4FCE010196B80133D1B6
:1005E00081E1E82EF12CEC0EFD1ECE010596B7013F
:1005F0002AD18985823038F08989823020F0C8017B
:10060000B7018AD101C08FEF6896E6E006C2ACE080
:10061000B0E0ECE0F3E0E9C169837A838B839C83EB
:10062000CE010196BE016B5F7F4F0DD18D8182306F
:1006300081F1823070F1843021F48E81882369F158
:100640000AC02F81388537FD24C06E812F313105D6
:100650003CF0662311F120E030E040E050E821C09A
:100660008EE190E0821B930B29853A854B855C8552
:1006700004C056954795379527958A95D2F76623F6
:1006800081F050954095309521953F4F4F4F5F4FEA
:1006900008C020E030E0A90104C02FEF3FEF4FEF8A
:1006A0005FE7B901CA012C96E2E0BBC1EF92FF926D
:1006B0000F931F93CF93DF93FC01248135814681F3
:1006C000578161818081823020F44061EFEFF0E05A
:1006D000A3C0843009F49BC0823009F492C0211574
:1006E00031054105510509F48FC00280F381E02DE9
:1006F0008FEFE238F8070CF05AC0C2E8DFEFCE1BEC
:10070000DF0BCA31D1056CF579018A010C2E04C0CA
:1007100016950795F794E7940A94D2F781E090E054
:10072000A0E0B0E00C2E04C0880F991FAA1FBB1FC9
:100730000A94D2F70197A109B10982239323A42334
:10074000B52321E030E040E050E00097A105B1057D
:1007500019F420E030E0A9012E293F29402B512B2C
:1007600003C020E030E0A901DA01C9018F77907061
:10077000A070B07080349105A105B10539F427FF50
:1007800009C0205C3F4F4F4F5F4F04C0215C3F4F7B
:100790004F4F5F4FE1E0F0E0203080E0380780E02D
:1007A000480780E4580728F5E0E0F0E022C0E03890
:1007B000F1056CF5E158FF4FDA01C9018F779070B0
:1007C000A070B07080349105A105B10539F427FF00
:1007D00009C0205C3F4F4F4F5F4F04C0215C3F4F2B
:1007E0004F4F5F4F57FF05C0569547953795279553
:1007F000319687E056954795379527958A95D1F795
:100800000BC0E0E0F0E005C0E0E0F0E005C0EFEF95
:10081000F0E020E030E0A9018E2F879588278795AA
:10082000942F9F77679566276795E695E22EA92F07
:10083000A82BFE2FF62B622F732F8A2F9F2FCDB759
:10084000DEB7E6E0EAC0DC01FB012C9111963C9199
:10085000119712968C911297482F4F7750E0982F4E
:10086000991F9927991F13966C911397862F880FBC
:10087000892B90E0661F6627661F6183009739F514
:10088000211531054105510511F482E029C082E8A6
:100890009FEF9383828367E0220F331F441F551F0E
:1008A0006A95D1F783E0808309C0220F331F441F6C
:1008B000551F82819381019793838283203080E04A
:1008C000380780E0480780E4580778F320C08F3F5E
:1008D000910579F4211531054105510519F484E09C
:1008E0008083089544FF03C081E0808310C010829C
:1008F0000EC08F5790409383828383E0808387E08C
:10090000220F331F441F551F8A95D1F7506424834B
:100910003583468357830895FC01DB019081923033
:1009200008F449C08C91823008F445C0943051F4E9
:1009300061818430B1F511962C91119730E0261B1E
:10094000310941C0843021F0923041F48230B1F15C
:1009500011968C9111978823A1F12DC0618182306D
:1009600001F111968C9111976817D9F42281338186
:1009700012968D919C9113978217930794F02817E4
:100980003907BCF0248135814681578114968D91B9
:100990009D910D90BC91A02D82179307A407B507D8
:1009A00018F4662341F00DC0281739074A075B0782
:1009B00028F4662331F021E030E005C020E030E08B
:1009C00002C02FEF3FEFC90108952F923F924F923F
:1009D0005F926F927F928F929F92AF92BF92CF92CF
:1009E000DF92EF92FF920F931F93CF93DF93CDB7D8
:1009F000DEB7CA1BDB0B0FB6F894DEBF0FBECDBF50
:100A000009942A88398848885F846E847D848C8420
:100A10009B84AA84B984C884DF80EE80FD800C8129
:100A20001B81AA81B981CE0FD11D0FB6F894DEBF0C
:100A30000FBECDBFED01089550D0E0F09E37D8F045
:100A40009639B8F49E3848F4672F782F8827985F36
:100A5000F9CF86957795679593959539D0F3B62F0D
:100A6000B1706B0F711D811D20F487957795679587
:100A7000939502C01CC04CC0882371F4772321F0E9
:100A80009850872B762F07C0662311F499270DC045
:100A90009051862B70E060E02AF09A95660F771FE0
:100AA000881FDAF7880F9695879597F908959F3FE5
:100AB00031F0915020F4879577956795B795880F19
:100AC000911D9695879597F9089557FD9058440F75
:100AD000551F59F05F3F71F04795880F97FB991F9D
:100AE00061F09F3F79F0879508951216130614065A
:100AF000551FF2CF4695F1DF08C0161617061806E7
:100B0000991FF1CF86957105610508940895E894C1
:100B1000BB2766277727CB0197F90895F894FFCF75
:080B20000000000000000000CD
:00000001FF
